{
  "_format": "hh-sol-artifact-1",
  "contractName": "FileStorage",
  "sourceName": "contracts/ChainVault.sol",
  "abi": [
    {
      "inputs": [
        {
          "internalType": "uint256",
          "name": "",
          "type": "uint256"
        }
      ],
      "name": "files",
      "outputs": [
        {
          "internalType": "string",
          "name": "name",
          "type": "string"
        },
        {
          "internalType": "string",
          "name": "hash",
          "type": "string"
        },
        {
          "internalType": "address",
          "name": "uploader",
          "type": "address"
        },
        {
          "internalType": "uint256",
          "name": "timestamp",
          "type": "uint256"
        }
      ],
      "stateMutability": "view",
      "type": "function"
    },
    {
      "inputs": [],
      "name": "getFiles",
      "outputs": [
        {
          "components": [
            {
              "internalType": "string",
              "name": "name",
              "type": "string"
            },
            {
              "internalType": "string",
              "name": "hash",
              "type": "string"
            },
            {
              "internalType": "address",
              "name": "uploader",
              "type": "address"
            },
            {
              "internalType": "uint256",
              "name": "timestamp",
              "type": "uint256"
            }
          ],
          "internalType": "struct FileStorage.File[]",
          "name": "",
          "type": "tuple[]"
        }
      ],
      "stateMutability": "view",
      "type": "function"
    },
    {
      "inputs": [
        {
          "internalType": "string",
          "name": "_name",
          "type": "string"
        },
        {
          "internalType": "string",
          "name": "_hash",
          "type": "string"
        }
      ],
      "name": "uploadFile",
      "outputs": [],
      "stateMutability": "nonpayable",
      "type": "function"
    }
  ],
  "bytecode": "0x608060405234801561001057600080fd5b50610d0c806100206000396000f3fe608060405234801561001057600080fd5b50600436106100415760003560e01c80632da96d7314610046578063996d50bf14610064578063f4c714b414610080575b600080fd5b61004e6100b3565b60405161005b9190610701565b60405180910390f35b61007e6004803603810190610079919061086c565b610296565b005b61009a60048036038101906100959190610910565b61037b565b6040516100aa94939291906109a5565b60405180910390f35b60606000805480602002602001604051908101604052809291908181526020016000905b8282101561028d578382906000526020600020906004020160405180608001604052908160008201805461010a90610a27565b80601f016020809104026020016040519081016040528092919081815260200182805461013690610a27565b80156101835780601f1061015857610100808354040283529160200191610183565b820191906000526020600020905b81548152906001019060200180831161016657829003601f168201915b5050505050815260200160018201805461019c90610a27565b80601f01602080910402602001604051908101604052809291908181526020018280546101c890610a27565b80156102155780601f106101ea57610100808354040283529160200191610215565b820191906000526020600020905b8154815290600101906020018083116101f857829003601f168201915b505050505081526020016002820160009054906101000a900473ffffffffffffffffffffffffffffffffffffffff1673ffffffffffffffffffffffffffffffffffffffff1673ffffffffffffffffffffffffffffffffffffffff168152602001600382015481525050815260200190600101906100d7565b50505050905090565b600060405180608001604052808481526020018381526020013373ffffffffffffffffffffffffffffffffffffffff168152602001428152509080600181540180825580915050600190039060005260206000209060040201600090919091909150600082015181600001908161030d9190610c04565b5060208201518160010190816103239190610c04565b5060408201518160020160006101000a81548173ffffffffffffffffffffffffffffffffffffffff021916908373ffffffffffffffffffffffffffffffffffffffff1602179055506060820151816003015550505050565b6000818154811061038b57600080fd5b90600052602060002090600402016000915090508060000180546103ae90610a27565b80601f01602080910402602001604051908101604052809291908181526020018280546103da90610a27565b80156104275780601f106103fc57610100808354040283529160200191610427565b820191906000526020600020905b81548152906001019060200180831161040a57829003601f168201915b50505050509080600101805461043c90610a27565b80601f016020809104026020016040519081016040528092919081815260200182805461046890610a27565b80156104b55780601f1061048a576101008083540402835291602001916104b5565b820191906000526020600020905b81548152906001019060200180831161049857829003601f168201915b5050505050908060020160009054906101000a900473ffffffffffffffffffffffffffffffffffffffff16908060030154905084565b600081519050919050565b600082825260208201905092915050565b6000819050602082019050919050565b600081519050919050565b600082825260208201905092915050565b60005b83811015610551578082015181840152602081019050610536565b60008484015250505050565b6000601f19601f8301169050919050565b600061057982610517565b6105838185610522565b9350610593818560208601610533565b61059c8161055d565b840191505092915050565b600073ffffffffffffffffffffffffffffffffffffffff82169050919050565b60006105d2826105a7565b9050919050565b6105e2816105c7565b82525050565b6000819050919050565b6105fb816105e8565b82525050565b6000608083016000830151848203600086015261061e828261056e565b91505060208301518482036020860152610638828261056e565b915050604083015161064d60408601826105d9565b50606083015161066060608601826105f2565b508091505092915050565b60006106778383610601565b905092915050565b6000602082019050919050565b6000610697826104eb565b6106a181856104f6565b9350836020820285016106b385610507565b8060005b858110156106ef57848403895281516106d0858261066b565b94506106db8361067f565b925060208a019950506001810190506106b7565b50829750879550505050505092915050565b6000602082019050818103600083015261071b818461068c565b905092915050565b6000604051905090565b600080fd5b600080fd5b600080fd5b600080fd5b7f4e487b7100000000000000000000000000000000000000000000000000000000600052604160045260246000fd5b6107798261055d565b810181811067ffffffffffffffff8211171561079857610797610741565b5b80604052505050565b60006107ab610723565b90506107b78282610770565b919050565b600067ffffffffffffffff8211156107d7576107d6610741565b5b6107e08261055d565b9050602081019050919050565b82818337600083830152505050565b600061080f61080a846107bc565b6107a1565b90508281526020810184848401111561082b5761082a61073c565b5b6108368482856107ed565b509392505050565b600082601f83011261085357610852610737565b5b81356108638482602086016107fc565b91505092915050565b600080604083850312156108835761088261072d565b5b600083013567ffffffffffffffff8111156108a1576108a0610732565b5b6108ad8582860161083e565b925050602083013567ffffffffffffffff8111156108ce576108cd610732565b5b6108da8582860161083e565b9150509250929050565b6108ed816105e8565b81146108f857600080fd5b50565b60008135905061090a816108e4565b92915050565b6000602082840312156109265761092561072d565b5b6000610934848285016108fb565b91505092915050565b600082825260208201905092915050565b600061095982610517565b610963818561093d565b9350610973818560208601610533565b61097c8161055d565b840191505092915050565b610990816105c7565b82525050565b61099f816105e8565b82525050565b600060808201905081810360008301526109bf818761094e565b905081810360208301526109d3818661094e565b90506109e26040830185610987565b6109ef6060830184610996565b95945050505050565b7f4e487b7100000000000000000000000000000000000000000000000000000000600052602260045260246000fd5b60006002820490506001821680610a3f57607f821691505b602082108103610a5257610a516109f8565b5b50919050565b60008190508160005260206000209050919050565b60006020601f8301049050919050565b600082821b905092915050565b600060088302610aba7fffffffffffffffffffffffffffffffffffffffffffffffffffffffffffffffff82610a7d565b610ac48683610a7d565b95508019841693508086168417925050509392505050565b6000819050919050565b6000610b01610afc610af7846105e8565b610adc565b6105e8565b9050919050565b6000819050919050565b610b1b83610ae6565b610b2f610b2782610b08565b848454610a8a565b825550505050565b600090565b610b44610b37565b610b4f818484610b12565b505050565b5b81811015610b7357610b68600082610b3c565b600181019050610b55565b5050565b601f821115610bb857610b8981610a58565b610b9284610a6d565b81016020851015610ba1578190505b610bb5610bad85610a6d565b830182610b54565b50505b505050565b600082821c905092915050565b6000610bdb60001984600802610bbd565b1980831691505092915050565b6000610bf48383610bca565b9150826002028217905092915050565b610c0d82610517565b67ffffffffffffffff811115610c2657610c25610741565b5b610c308254610a27565b610c3b828285610b77565b600060209050601f831160018114610c6e5760008415610c5c578287015190505b610c668582610be8565b865550610cce565b601f198416610c7c86610a58565b60005b82811015610ca457848901518255600182019150602085019450602081019050610c7f565b86831015610cc15784890151610cbd601f891682610bca565b8355505b6001600288020188555050505b50505050505056fea2646970667358221220c3e6fbf3e335eff160a6a2e12e6e0ab95234c59243cf4d67e03464208a320d8264736f6c63430008140033",
  "linkReferences": {},
  "deployedLinkReferences": {}
}